:100000000C942A000C9447000C9447000C94470071
:100010000C9447000C9447000C9447000C94C300C8
:100020000C9447000C948E000C9447000C944700ED
:100030000C9447000C9447000C9447000C94470024
:100040000C9447000C9447000C9447000C94470014
:100050000C94470011241FBECFE5D8E0DEBFCDBF12
:1000600010E0A0E6B0E0E2E1F3E002C005900D92FE
:10007000AA36B107D9F720E0AAE6B0E001C01D9288
:10008000AC36B207E1F70E945E010C9487010C9434
:1000900000008FEF84BB85BB089585B3809585BB39
:1000A0000895F8948EB584608EBD8EEB90EF9DBD63
:1000B0008CBD89B7846089BF78940895F8948EB513
:1000C00084608EBD8EB588608EBD81E49FE09BBD4F
:1000D0008ABD89B7806189BF789408951ABA8FEF75
:1000E0008BBB089580E090E041E050E029B330E020
:1000F000082E02C0359527950A94E2F720FD09C025
:1001000065B39A01082E01C0220F0A94EAF7262B44
:1001100025BB01968430910549F708951F920F92EF
:100120000FB60F9211242F933F934F935F936F93CA
:100130007F938F939F93AF93BF93EF93FF930E940F
:100140004D000E94720080916A0090916B000196B0
:1001500090936B0080936A0084E088BF8EEB90EFF1
:100160009DBD8CBDFF91EF91BF91AF919F918F91FC
:100170007F916F915F914F913F912F910F900FBEA3
:100180000F901F9018951F920F920FB60F92112487
:100190002F933F934F935F936F937F938F939F938F
:1001A000AF93BF93EF93FF930E944D000E947200A4
:1001B00080916A0090916B00019690936B00809300
:1001C0006A0080E188BFFF91EF91BF91AF919F914D
:1001D0008F917F916F915F914F913F912F910F90F0
:1001E0000FBE0F901F9018958FEF81BB82BB87BB0E
:1001F00018BA0895EF92FF920F931F93CF93DF9356
:100200009C0168EE73E00E947301CB01EAE0F0E02C
:10021000BF010E9473018C01C90164E670E00E9475
:100220007301CB01BF010E947301EC01C901BF0141
:100230000E9473017C01CB01BF010E947301FC018C
:1002400090E04FEFBF01605A7F4FD701A05ABF4FD8
:10025000C05ADF4F005A1F4F42BB9230A1F093307B
:10026000D1F0913049F0283E83E03807B8F0F8012A
:10027000808188BB909812C02436310578F088813F
:1002800088BB91980BC02A30310540F0FB0180817A
:1002900088BB929803C08C9188BB93989F5FE3EFD3
:1002A000F1E03197F1F700C000009430A9F6DF913A
:1002B000CF911F910F91FF90EF9008950E944900F8
:1002C0000E946E000E94F4000E945E0080916A000D
:1002D00090916B000E94FA0087E893E10197F1F793
:1002E00000C00000F3CFAA1BBB1B51E107C0AA1F2F
:1002F000BB1FA617B70710F0A61BB70B881F991FC7
:100300005A95A9F780959095BC01CD010895F89470
:02031000FFCF1D
:0A031200C0F9A4B0999282F880901F
:00000001FF
