:100000000C942A000C9447000C9447000C94470071
:100010000C9447000C9447000C9447000C94470044
:100020000C9447000C9447000C9447000C94470034
:100030000C9447000C9460000C9447000C9447000B
:100040000C9447000C9447000C9447000C94470014
:100050000C94470011241FBECFE5D8E0DEBFCDBF12
:1000600010E0A0E6B0E0E6EFF2E002C005900D92ED
:10007000A038B107D9F721E0A0E8B0E001C01D9297
:10008000AB30B207E1F70E94F8000C9479010C94B0
:1000900000008FEF8ABB8BBB0895F8941AB810BC90
:1000A00089E189B988E98AB986E880BD789408959C
:1000B0005F9BFECF8CB108955D9BFECF8CB90895F8
:1000C0001F920F920FB60F9211242F933F934F93CD
:1000D0005F936F937F938F939F93AF93BF93EF93B0
:1000E000FF936CB180E890E00E94B400FF91EF9123
:1000F000BF91AF919F918F917F916F915F914F9140
:100100003F912F910F900FBE0F901F901895FC01FB
:10011000E058FF4F118210823296118210820895AA
:10012000FC01EE57FF4F80819181019660E870E0FD
:100130000E942101AC01329781E020813181421778
:10014000530709F080E00895DC01A058BF4FFC017F
:10015000EE57FF4F81E04D915C9120813181421734
:10016000530709F080E008951F93CF93DF93EC01CC
:10017000162F0E949000882339F080E690E0DF91EE
:10018000CF911F910C944901FE01EE57FF4F8081E2
:100190009181C80FD91F1883019660E870E00E9412
:1001A000210191838083DF91CF911F910895FC01FC
:1001B000E058FF4F20813181DC01AE57BF4F4D9198
:1001C0005C912417350731F48FE690E00E944901D5
:1001D00080E00895DC01A20FB31F4C91C901019684
:1001E00060E870E00E94210191838083842F08954C
:1001F000F8940E9449000E944D007894DFEF01E0DE
:1002000010E080E890E00E94A4008111FACF80E81D
:1002100090E00E94D700C82F0E945C00C33711F401
:10022000DBBB03C0C33609F41BBAC053CA3048F75E
:100230002BB3C80101C0880FCA95EAF782278BBB90
:10024000E0CF97FB072E16F4009407D077FD09D076
:100250000E94350107FC05D03EF4909581959F4F93
:100260000895709561957F4F0895AA1BBB1B51E1BE
:1002700007C0AA1FBB1FA617B70710F0A61BB70B16
:10028000881F991F5A95A9F780959095BC01CD01BB
:1002900008950F931F93CF93DF93E0910701F0919F
:1002A0000801238121FF1BC08C01D0E0C0E0F801D0
:1002B00081918F016091070170910801DB0118960F
:1002C000ED91FC911997882331F00995892B79F3E9
:1002D000DFEFCFEFECCF8AE00995892B19F08FEF94
:1002E0009FEF02C08D2F9C2FDF91CF911F910F9117
:0602F0000895F894FFCF11
:1002F6005175657565206F766572666C6F7700510E
:100306007565756520756E646572666C6F7700003D
:00000001FF
