:100000000C942A000C9434000C9434000C943400AA
:100010000C9434000C9434000C9434000C94340090
:100020000C9434000C9434000C9434000C94340080
:100030000C9434000C9434000C9434000C94340070
:100040000C9434000C9434000C9434000C94340060
:100050000C94340011241FBECFE5D8E0DEBFCDBF25
:100060000E94AE010C94B3010C94000081E082BBAD
:100070002FE33DE093E0215030409040E1F700C095
:10008000000092E092BB2FE33DE093E0215030402E
:100090009040E1F700C0000094E092BB2FE33DE008
:1000A00093E0215030409040E1F700C0000098E01C
:1000B00092BB2FE33DE093E0215030409040E1F7C8
:1000C00000C0000090E192BB2FE33DE093E021509F
:1000D00030409040E1F700C0000090E292BB2FE377
:1000E0003DE093E0215030409040E1F700C0000037
:1000F00090E492BB2FE33DE093E0215030409040EC
:10010000E1F700C0000090E892BB2FE33DE093E0F0
:10011000215030409040E1F700C0000082BB2FE347
:100120003DE083E0215030408040E1F700C0000016
:1001300088E092B3990F92BB9FE32DE033E091509A
:1001400020403040E1F700C00000815091F7089551
:1001500081E082BB80E090E061E070E042B39B010F
:10016000082E01C0220F0A94EAF7242B22BB2FE3AA
:100170003DE043E0215030404040E1F700C0000046
:1001800001968830910551F787E090E061E070E0DA
:1001900032B3AB01082E01C0440F0A94EAF7242FB2
:1001A0002095232322BB2FE936E841E0215030403F
:1001B0004040E1F700C00000019750F7089588E043
:1001C00082BB2FE33DE083E0215030408040E1F7E7
:1001D00000C0000084E092B322B39695922B92BBAC
:1001E0009FE32DE033E0915020403040E1F700C024
:1001F0000000815081F780E182BB8FE996E821E021
:10020000815090402040E1F700C0000084E092B3AC
:1002100022B3990F922B92BB3FE996E821E031502F
:1002200090402040E1F700C00000815081F7089520
:1002300012BA979A929A2FE33DE043E02150304062
:100240004040E1F700C0000080E090E046E050E070
:1002500061E070E0E2B39A01281B390BDB0102C0B8
:10026000AA0FBB1F2A95E2F79D012E2B22BB22B3BA
:10027000287F22BB22B380FD02C032E001C031E002
:10028000232B22BBBFE3EDE0F3E0B150E040F040B0
:10029000E1F700C00000019683309105D9F680E0B7
:1002A00090E061E070E032B3AC014C5F5F4FDB0186
:1002B00002C0AA0FBB1F4A95E2F72A2F20952323DD
:1002C00022BB22B3287F22BB42B39B01082E01C070
:1002D000220F0A94EAF7242B22BBBFE3EDE0F3E000
:1002E000B150E040F040E1F700C0000001968330DB
:1002F0009105C9F6089580EC82BB2FE936E881E0CC
:10030000215030408040E1F700C0000086E092B309
:10031000969592BB9FE926E831E09150204030400D
:10032000E1F700C00000815091F78FE996E821E0E5
:10033000815090402040E1F700C0000086E092B379
:10034000990F92BB3FE39DE023E031509040204065
:10035000E1F700C00000815091F708958FEF81BB55
:0A0360000E947B01FDCFF894FFCF4F
:00000001FF
