:100000000C942A000C943F000C943F000C943F0089
:100010000C943F000C943F000C943F000C943F0064
:100020000C943F000C943F000C943F000C943F0054
:100030000C943F000C943F000C943F000C943F0044
:100040000C943F000C943F000C943F000C943F0034
:100050000C943F0011241FBECFE5D8E0DEBFCDBF1A
:1000600010E0A0E6B0E0EEEFF3E002C005900D92E4
:10007000A437B107D9F70E94B6010C94FD010C9486
:100080000000E0917000F091710080EF808387EABA
:1000900091E60197F1F700C00000E0917000F09147
:1000A000710080818095808387EA91E60197F1F75E
:1000B00000C000000895E0917000F09171008AEA9C
:1000C000808387EA91E60197F1F700C00000E09194
:1000D0007000F091710080818095808387EA91E6BD
:1000E0000197F1F700C000000895E0917000F091D1
:1000F000710081E0808387EA91E60197F1F700C003
:100100000000E0917000F0917100808187FF0AC0CB
:100110008081880F8083E0917000F0917100808170
:100120008160E8CF8081880FE5CFE0917000F09189
:10013000710081E0808387EA91E60197F1F700C0C2
:100140000000E0917000F091710080819081990F22
:100150009083E0917000F09171009081881F882752
:10016000881F892BE7CFE0917000F091710081E04A
:10017000808387EA91E60197F1F700C00000E091E3
:100180007000F091710090818081990F881F8827FD
:10019000881F892BEDCFE0917000F091710080E90C
:1001A000808387EA91E60197F1F700C00000E091B3
:1001B0007000F091710080819081282F269530E8A1
:1001C000939FC0011124822BEBCFC89B0C9441005C
:1001D000C99B0C945B00CA9B0E94B300CB9B0E94FE
:1001E000CB00089524E030E0E1E0F0E09CEF920FD6
:1001F000AF01022E01C0440F0A94EAF740954BBBB1
:10020000ADEEB2E01197F1F700C0000040E050E021
:10021000842F69B370E0042E02C0759567950A9427
:10022000E2F760FD04C0880F880F890F08954F5FC3
:100230005F4F4430510561F72F5F3F4F2830310544
:10024000A9F68FEF08950E94F200E0917000F091FE
:100250007100808308950E94F200E0917000F09197
:100260007100883028F098EF980F983058F4892F53
:1002700021E030E0A90102C0440F551F8A95E2F742
:10028000CA0101C08FEF808308958F3F71F0E82F7E
:10029000E695E695837094E0E99FF0011124E05A19
:1002A000FF4FE80FF11D808108958FEF089590EDC5
:1002B000980F81E09A3008F080E008959FEB980F46
:1002C00081E0943008F080E008950E94F2000E94DE
:1002D000450180538A30C8F7C82F83ED90E301971A
:1002E000F1F700C000000E94F2000E944501182FA3
:1002F0008FEB810F8430B8F70E94F2000E94450115
:10030000D0EDD80FDA30C0F78FE493EC0197F1F716
:1003100000C000000E94F2000E9445018332D1F724
:100320008FE493EC0197F1F700C00000133441F023
:10033000143451F0123411F0CD0F12C0CD1B10C087
:10034000CD9FC02D11240CC0DD2349F08C2FCC0F84
:10035000990B6D2F70E00E94D501C62F01C0C0E03F
:10036000E0917000F0917100C083BDCFE091720008
:10037000F09173008FEF8083E0917000F091710035
:1003800080832FE58AEE90E0215080409040E1F795
:1003900000C00000E0917000F0917100108280EFC9
:1003A0008ABB8FE08BBB0E94650197FB072E16F47A
:1003B000009407D077FD09D00E94E90107FC05D021
:1003C0003EF4909581959F4F0895709561957F4F6C
:1003D0000895AA1BBB1B51E107C0AA1FBB1FA6178C
:1003E000B70710F0A61BB70B881F991F5A95A9F7DE
:0E03F00080959095BC01CD010895F894FFCF43
:1003FE003132334134353642373839432A3023448B
:04040E003200310087
:00000001FF
