:100000000C942A000C943F000C943F000C943F0089
:100010000C943F000C943F000C943F000C943F0064
:100020000C943F000C943F000C943F000C943F0054
:100030000C943F000C943F000C943F000C943F0044
:100040000C943F000C943F000C943F000C943F0034
:100050000C943F0011241FBECFE5D8E0DEBFCDBF1A
:1000600010E0A0E6B0E0E8EFF1E002C005900D92EC
:10007000AA36B107D9F70E94A5000C94FA000C9497
:100080000000EF92FF920F931F93CF93DF939C0199
:1000900068EE73E00E94E600CB01EAE0F0E0BF0109
:1000A0000E94E6008C01C90164E670E00E94E6004F
:1000B000CB01BF010E94E600EC01C901BF010E9413
:1000C000E6007C01CB01BF010E94E600FC0190E04C
:1000D0004FEFBF01605A7F4FD701A05ABF4FC05AA0
:1000E000DF4F005A1F4F4BBB9230A1F09330D1F03D
:1000F000913049F0283E83E03807B8F0F80180815C
:1001000088BBD89812C02436310578F0888188BB26
:10011000D9980BC02A30310540F0FB01808188BBA3
:10012000DA9803C08C9188BBDB989F5FE3EFF1E026
:100130003197F1F700C000009430A9F6DF91CF911C
:100140001F910F91FF90EF9008958FEF87BB18BA22
:100150008AB38F608ABB8BB3807F8BBB81B3887F70
:1001600081BB82B3876082BB10E0C0E0D0E08099A1
:1001700008C081EE94E00197F1F700C00000809B79
:1001800010E081990AC081EE94E00197F1F700C078
:100190000000819902C0C0E0D0E0829908C081EEE1
:1001A00094E00197F1F700C00000829B11E00CE0A1
:1001B000CE010E9441000150D9F7113029F0C03121
:1001C00087E2D807A1F6D1CF2196F9CFAA1BBB1B96
:1001D00051E107C0AA1FBB1FA617B70710F0A61B47
:1001E000B70B881F991F5A95A9F780959095BC0168
:0801F000CD010895F894FFCF42
:0A01F800C0F9A4B0999282F880903B
:00000001FF
