:100000000C942A000C9434000C9434000C943400AA
:100010000C9434000C9434000C9434000C94340090
:100020000C9434000C9434000C9434000C94340080
:100030000C9434000C9434000C9434000C94340070
:100040000C9434000C9434000C9434000C94340060
:100050000C94340011241FBECFE5D8E0DEBFCDBF25
:100060000E9497000C94F1000C9400008FEF81BB6C
:1000700082BB089583B78E7F83BF83B78D7F83BF95
:1000800083B7846083BF83B7886083BF86E28CBFF9
:10009000089508B601FEFDCF82E088BF0895CF9392
:1000A000C4E60E944900C150E1F7CF91089583B79B
:1000B0008E7F83BF83B78B7F83BF83B7826083BF0D
:1000C000089508B601FEFDCF82E088BF83E882BFB5
:1000D0000895CF93DF93C8EED3E00E94610021978B
:1000E000E1F7DF91CF9108958F929F92AF92BF92E7
:1000F000CF92DF92EF92FF924B015C01C12CD12C89
:100100007601C814D904EA04FB0441F00E9461009E
:100110008FEFC81AD80AE80AF80AF3CFFF90EF90D9
:10012000DF90CF90BF90AF909F908F9008950E94E6
:1001300036000E94570012BAC12CD12C76019924A6
:100140009394AA24A394B12C8FEFC81AD80AE80A72
:10015000F80A68EE73E080E090E00E94740082B3D9
:10016000892582BBC1E0D0E085010C2E02C0000FC2
:10017000111F0A94E2F79801110F440B550BC701A8
:10018000B6010E94CF00672B682B692B19F482B34C
:10019000082702BB2196C830D10531F7D5CFA1E29F
:1001A0001A2EAA1BBB1BFD010DC0AA1FBB1FEE1FF1
:1001B000FF1FA217B307E407F50720F0A21BB30B3C
:1001C000E40BF50B661F771F881F991F1A9469F7B8
:1001D00060957095809590959B01AC01BD01CF0114
:0601E0000895F894FFCF22
:00000001FF
