:100000000C942A000C9447000C9447000C94470071
:100010000C9447000C9447000C9447000C948A0001
:100020000C9447000C9447000C9447000C94470034
:100030000C9447000C9463000C9447000C94470008
:100040000C9447000C9447000C9447000C94470014
:100050000C94470011241FBECFE5D8E0DEBFCDBF12
:1000600010E0A0E6B0E0E2EFF4E002C005900D92EF
:10007000A038B107D9F721E0A0E8B0E001C01D9297
:10008000AE3DB207E1F70E947C010C9477020C941C
:1000900000008FEF8ABB8BBB0895F8941AB810BC90
:1000A00089E189B988E98AB986E880BD789408959C
:1000B0008EB58C608EBD88E09DE39BBD8ABD89B7FF
:1000C000806189BF08951F920F920FB60F9211247D
:1000D0002F933F934F935F936F937F938F939F9350
:1000E000AF93BF93EF93FF936CB182E890E00E94CF
:1000F0003801FF91EF91BF91AF919F918F917F91C7
:100100006F915F914F913F912F910F900FBE0F9084
:100110001F9018951F920F920FB60F9211242F93D4
:100120003F934F935F936F937F938F939F93AF937F
:10013000BF93CF93DF93EF93FF938091060190914C
:10014000070101969093070180930601C6E0D1E074
:10015000699183E591E00E94380181E0C331D807BD
:10016000B9F7FF91EF91DF91CF91BF91AF919F913F
:100170008F917F916F915F914F913F912F910F9050
:100180000FBE0F901F9018955F9BFECF8CB1089506
:100190005D9BFECF8CB9089580EF87BB8FEF88BB46
:1001A000089544E050E0E1E0F0E0942F88B3806FE0
:1001B00088BB86E08A95F1F700C028B3BF01042E02
:1001C00001C0660F0A94EAF7862F8095822388BBC8
:1001D00086E08A95F1F700C060E070E0862F26B3D4
:1001E0002F7030E0062E02C0359527950A94E2F76D
:1001F00020FD05C0880F880F9350890F08956F5F09
:100200007F4F6430710551F74F5F5F4F48305105A4
:1002100061F680E00895FC01E058FF4F11821082E2
:100220003296118210820895FC01EE57FF4F8081B3
:100230009181019660E870E00E94E201AC01329782
:1002400081E0208131814217530709F080E0089551
:10025000DC01A058BF4FFC01EE57FF4F81E04D91EC
:100260005C91208131814217530709F080E00895A5
:100270001F93CF93DF93EC01162F0E941401882364
:1002800039F080E690E0DF91CF911F910C94470206
:10029000FE01EE57FF4F80819181C80FD91F18834F
:1002A000019660E870E00E94E20191838083DF9113
:1002B000CF911F910895FC01E058FF4F20813181BB
:1002C000DC01AE57BF4F4D915C912417350731F4D7
:1002D0008FE690E00E94470280E00895DC01A20FC3
:1002E000B31F4C91C901019660E870E00E94E201E1
:1002F00091838083842F0895F8940E9449000E947E
:10030000CC000E944D000E945800789483E591E053
:100310000E942801811106C083E591E00E945B01E3
:100320000E94C80082E890E00E942801811121C04B
:1003300082E890E00E945B01209180003091810072
:10034000F901ED5EFE4F80832F5F3F4F30938100B8
:10035000209380002130310561F480911301809356
:10036000D70110928100109280001BBA8091D701B2
:100370008BBB0E94D100C82F882341F22AE0829FC4
:10038000C001112490930D0180930C01CC2ED12C2F
:10039000E12CF12CC701B6010E940A0260930E0104
:1003A00070930F018093100190931101CC0FC093B3
:1003B0001201C0920801D0920901E0920A01F09264
:1003C0000B01A4CF97FB072E16F4009407D077FDFE
:1003D00009D00E94F60107FC05D03EF49095819566
:1003E0009F4F0895709561957F4F0895AA1BBB1B81
:1003F00051E107C0AA1FBB1FA617B70710F0A61B25
:10040000B70B881F991F5A95A9F780959095BC0145
:10041000CD010895E89409C097FB3EF4909580952E
:10042000709561957F4F8F4F9F4F9923A9F0F92FBA
:1004300096E9BB279395F695879577956795B79538
:10044000F111F8CFFAF4BB0F11F460FF1BC06F5F1E
:100450007F4F8F4F9F4F16C0882311F096E911C030
:10046000772321F09EE8872F762F05C0662371F051
:1004700096E8862F70E060E02AF09A95660F771F65
:10048000881FDAF7880F9695879597F908950F9347
:100490001F93CF93DF93E091DA01F091DB01238189
:1004A00021FF1BC08C01D0E0C0E0F80181918F01D9
:1004B0006091DA017091DB01DB011896ED91FC91FE
:1004C0001997882331F00995892B79F3DFEFCFEF66
:1004D000ECCF8AE00995892B19F08FEF9FEF02C0CE
:1004E0008D2F9C2FDF91CF911F910F910895F8943C
:0204F000FFCF3C
:1004F2005175657565206F766572666C6F77005110
:100502007565756520756E646572666C6F7700003F
:00000001FF
