:100000000C942A000C943F000C943F000C943F0089
:100010000C943F000C943F000C943F000C943F0064
:100020000C943F000C943F000C943F000C943F0054
:100030000C943F000C943F000C943F000C943F0044
:100040000C943F000C943F000C943F000C943F0034
:100050000C943F0011241FBECFE5D8E0DEBFCDBF1A
:1000600010E0A0E6B0E0EEEEF3E002C005900D92E5
:10007000A438B107D9F70E949E010C94F5010C94A5
:100080000000E0916000F091610080818D7F8083AD
:100090000895E0916000F09161008081826080832A
:1000A0000895E0916000F09161008081816080831B
:1000B0000895E0916000F091610080818E7F8083DF
:1000C000089583FF07C0E0916000F0916100908186
:1000D0009068908382FF07C0E0916000F09161001A
:1000E00090819064908381FF07C0E0916000F0915F
:1000F000610090819062908380FF07C0E091600072
:10010000F09161008081806180830895E0916000BA
:10011000F091610090819F7090838F700C946100CA
:10012000E0916000F091610090819F7090838295D2
:100130008F700C946100CF93C82F0E9490000E9492
:10014000510082E08A95F1F700C00E94590087E8CB
:1001500093E10197F1F700C000008C2F0E94860008
:100160000E94510092E09A95F1F700C00E94590058
:1001700087E893E10197F1F700C00000CF9108955F
:10018000CF93C82F0E9441008C2FCF910C949B00DD
:10019000CF93C82F0E9449008C2FCF910C949B00C5
:1001A000E0916200F09163008FEF80838FE493EC25
:1001B0000197F1F700C0000083E30E94C0008FE9BF
:1001C0009FE00197F1F700C0000082E30E94C000A9
:1001D0008FE99FE00197F1F700C0000088E20E94DC
:1001E000C00086E00E94C0008FE00E94C0008FE93E
:1001F0009FE00197F1F700C0000081E00E94C0007D
:100200008FE99FE00197F1F700C0000008950F9378
:100210001F93CF938C01C0E0F801EC0FF11D80819A
:10022000882321F00E94C800CF5FF6CFCF911F91A5
:100230000F91089590E4899F600D1124862F8068A6
:100240000C94C00081E00C94C00082E00C94C000CB
:10025000CF93DF93D42F0E941A01C0E0CD1729F06D
:1002600080E20E94C000CF5FF9CFDF91CF91089567
:100270000F931F93CF93DF938C0180E40E94C00003
:100280008FEC97E00197F1F700C00000E801085FEC
:100290001F4F89910E94C800C017D107D1F780E88D
:1002A0000E94C00080E0DF91CF911F910F910C94CC
:1002B000C80080EF8ABB8FEF8BBB089544E050E00D
:1002C000E1E0F0E0942F8BB3806F8BBB86E08A95E2
:1002D000F1F700C02BB3BF01042E01C0660F0A94D2
:1002E000EAF7862F809582238BBB86E08A95F1F70B
:1002F00000C060E070E0862F29B32F7030E0062E3A
:1003000002C0359527950A94E2F720FD05C0880FB5
:10031000880F9350890F08956F5F7F4F6430710588
:1003200051F74F5F5F4F4830510561F680E0089507
:1003300088E10C94C0008CE10C94C000CF93DF9353
:10034000CDB7DEB728970FB6F894DEBF0FBECDBF8E
:100350000E9459010E94D00082E80E94C0008CE6F1
:1003600090E00E94070183EC0E94C00089E790E0C2
:100370000E94070188E0E4E6F0E0DE0111960190BA
:100380000D928A95E1F760E0CE0101960E94380156
:100390000E945E018823E1F3853039F40E94220136
:1003A0008FE493EC0197F1F71DC0823059F40E945D
:1003B00025018CE690E00E9407018FE39CE90197FC
:1003C000F1F710C0833019F40E94980104C0843002
:1003D000F9F60E949B019FEF20E782E091502040B8
:0E03E0008040E1F700C00000D3CFF894FFCFBB
:1003EE0038003700040A111111110A04456D756C9D
:1003FE0061746F72204156520054656368207550C7
:04040E00524F430006
:00000001FF
