:100000000C942A000C9434000C9434000C943400AA
:100010000C9434000C9434000C9434000C94340090
:100020000C9434000C9434000C9434000C94340080
:100030000C9434000C9434000C9434000C94340070
:100040000C9434000C9434000C9434000C94340060
:100050000C94340011241FBECFE5D8E0DEBFCDBF25
:100060000E9446010C9452010C940000CF93DF9340
:10007000EB01DA01F901833079F08430C1F082308C
:1000800009F587E390E09983888388E390E08D9376
:100090009C9386E390E020C084E390E0998388837A
:1000A00085E390E08D939C9383E390E015C081E31A
:1000B00090E09983888382E390E08D939C9380E322
:1000C00090E00AC08AE390E0998388838BE390E014
:1000D0008D939C9389E390E091838083DF91CF910E
:1000E0000895FC01842FD9019081906F90839081B5
:1000F00024E0240F41E050E001C0440F2A95EAF7C4
:10010000409549234083E9EFF0E03197F1F700C0D3
:100110000000FB0190819F70E5EAFEE03197F1F766
:1001200000C00000FB0130813F70931317C09D3069
:1001300071F030F4973069F09B3069F4875F08956F
:100140009E3019F09F3051F006C08F5F08958B5F8D
:100150000895835F08958C918E5F8C9380E008955D
:10016000CF93DF9300D000D000D0CDB7DEB79E0193
:100170002F5F3F4FAE014D5F5F4FBE016B5F7F4F03
:100180000E943600ED81FE8180EF8083EB81FC814F
:100190008FEF808326960FB6F894DEBF0FBECDBFDB
:1001A000DF91CF910895CF93DF9300D000D000D09E
:1001B000CDB7DEB79E012F5F3F4FAE014D5F5F4F62
:1001C000BE016B5F7F4F0E943600ED81FE818FEF95
:1001D0008083EB81FC81108226960FB6F894DEBFF7
:1001E0000FBECDBFDF91CF9108950F931F93CF9393
:1001F000DF93CDB7DEB727970FB6F894DEBF0FBEFB
:10020000CDBF162F9E012F5F3F4FAE014D5F5F4F59
:10021000BE016B5F7F4F0E9436001F82111111C01B
:1002200069817A819E01295F3F4F40E08B819C81EB
:100230000E947100182F8823C9F08F818F5F8F83F0
:1002400015C000E010E069817A819E01295F3F4F6F
:10025000402F8B819C810E947100882321F09F8117
:100260009F5F9F83182F0F5F043069F78F81823063
:1002700008F010E0812F27960FB6F894DEBF0FBE6E
:10028000CDBFDF91CF911F910F91089581E00E9422
:10029000B00082E00E94D30061E081E00E94F5009E
:0802A00088BBFACFF894FFCFF0
:00000001FF
