:100000000C942A000C9447000C9447000C94470071
:100010000C9447000C9447000C9447000C94470044
:100020000C9447000C9447000C9447000C94470034
:100030000C9447000C9447000C9447000C94470024
:100040000C9447000C9447000C9447000C94470014
:100050000C94470011241FBECFE5D8E0DEBFCDBF12
:1000600010E0A0E6B0E0E2EFF4E002C005900D92EF
:10007000A839B107D9F720E0A8E9B0E001C01D9286
:10008000A939B207E1F70E9495010C9477020C940C
:10009000000020EFFC0120838FEFFB018083089597
:1000A000EF92FF920F931F93CF93DF93FC01DB013D
:1000B000442311F064E001C061E044E050E030E02E
:1000C00020E080E0EE24E394F12C9081906F908307
:1000D00070818701042E01C0000F0A94EAF7902F67
:1000E000909597239083CFECD7E02197F1F700C04C
:1000F00000009C919F70CFE2D5E72197F1F700C0F7
:1001000000007C917F7011E0120F971316C09D3094
:1001100071F030F4973069F09B3071F489E00AC0D7
:100120009E3019F09F3049F007C0812F0FC085E045
:1001300001C08DE0820F0AC03E5F212F4F5F5F4FED
:100140006113C3CF323020F080E002C03F5FF5CFB3
:10015000DF91CF911F910F91FF90EF900895FB01D8
:1001600090819F70908390819260908395E89A959A
:10017000F1F7000080FF03C090819061908381FFC0
:1001800003C090819062908382FF03C0908190644D
:10019000908383FF03C080818068808385E88A958F
:1001A000F1F7000080818D7F808387EC90E00197DC
:1001B000F1F700C0000008951F93CF93DF93182F2D
:1001C000EB0188818E7F8883812F82958F700E94BA
:1001D000AF00BE01812F8F70DF91CF911F910C94E2
:1001E000AF001F93CF93DF93182FEB0188818160BD
:1001F0008883812F82958F700E94AF00BE01812F6E
:100200008F70DF91CF911F910C94AF00BC0181E002
:100210000E94DC008FE99FE00197F1F700C0000029
:10022000109298000895CF93DF93FC01EB01908129
:10023000936F908388818C7088832FE788E391E0A7
:10024000215080409040E1F700C0000083E30E940D
:10025000DC00BE0182E30E94DC00BE0188E20E9455
:10026000DC00BE0186E00E94DC00BE018CE00E9442
:10027000DC00CE01DF91CF910C94060180939800B1
:1002800090E4899F600D1124862FBA0180680C9438
:10029000DC00CF92DF92EF92FF921F93CF93DF9318
:1002A0007B01142FEC016E0188818823D1F010317D
:1002B00080F09091980081E0911180E08093980007
:1002C00080919800A70160E070E090E00E943E01FC
:1002D00010E02196B701F60180810E94F1001F5FB6
:1002E000E2CFDF91CF911F91FF90EF90DF90CF9001
:1002F00008950F931F93CF93DF93EC018B014097E9
:100300007CF480919800AB01BE0190E00E943E0118
:10031000B80180E20E94F1002196C031D105C1F7F9
:10032000DF91CF911F910F910895CF93DF93CDB7B8
:10033000DEB728970FB6F894DEBF0FBECDBF68E3D7
:1003400070E087E390E00E94130188E390E00E9450
:10035000060148E350E060E070E080E090E00E9439
:100360003E0140E068E370E088E690E00E944901C9
:100370002FEF83ED90E3215080409040E1F700C0E3
:10038000000088E0E0E6F0E0DE01119601900D92B9
:100390008A95E1F768E370E080E40E94DC008E015A
:1003A0000F5F1F4F6E01E9E0CE0ED11C780168E3AC
:1003B00070E0F70181917F010E94F100CE14DF040B
:1003C000B1F7F80181918F0168E370E080950E9498
:1003D000F100C016D106A9F788E390E00E9406015B
:1003E00048E350E06FE070E080E090E00E943E0162
:1003F00068E370E080E00E94F100FFEF26E181E118
:10040000F15020408040E1F700C0000048E350E098
:100410006FE070E080E090E00E943E0168E370E0F1
:1004200081E00E94F1009FEFE6E1F1E19150E040B0
:10043000F040E1F700C0000088E390E00E94060170
:1004400048E350E060E070E081E090E00E943E010F
:1004500040E068E370E08BE890E00E9449016BE3C4
:1004600070E08AE390E00E94490000E08AE0F82E04
:1004700041E069E370E08BE390E00E945000182FA8
:10048000811103C0102F012FF3CF0817E1F368E3A8
:1004900070E08CE090E00E94790148E350E06CE06D
:1004A00070E081E090E00E943E011A3048F0812F18
:1004B0006F2D0E946B0268E370E0805D0E94F10086
:1004C000812F6F2D0E946B0268E370E080E3890F3B
:1004D0000E94F100D8CF991B79E004C0991F9617AC
:1004E00008F0961B881F7A95C9F780950895F894AF
:0204F000FFCF3C
:1004F200000004040E040400426172647A6F2064F6
:100502006C7567692074656B737420646F207779EA
:1005120073776965746C656E69610050727A79638C
:0805220069736B206E723A0050
:00000001FF
