:100000000C942A000C943F000C943F000C943F0089
:100010000C943F000C943F000C943F000C943F0064
:100020000C943F000C943F000C943F000C943F0054
:100030000C943F000C943F000C943F000C943F0044
:100040000C943F000C943F000C943F000C943F0034
:100050000C943F0011241FBECFE5D8E0DEBFCDBF1A
:1000600010E0A0E6B0E0E8E3F2E002C005900D92F7
:10007000A037B107D9F70E9473000C941A010C94B1
:10008000000098B3937C98BBC19A90E19A95F1F7E0
:1000900000C080FDC29A81FDC39A82FDC49A83FD8F
:1000A000C59A80E18A95F1F700C0C19891E29A95CE
:1000B000F1F700000895CF93C82FC09882958F70F4
:1000C0000E9441008C2F8F70CF910C944100CF93F0
:1000D000C82FC09A82958F700E9441008C2F8F701C
:1000E000CF910C944100CF93DF93CDB7DEB76897E3
:1000F0000FB6F894DEBF0FBECDBF87B38F6387BB4B
:1001000088B3807C88BB83ED90E30197F1F700C052
:10011000000083E30E945B0082E30E945B0088E2B0
:100120000E945B0086E00E945B008CE00E945B0006
:1001300081E00E945B00E3EFF1E03197F1F700C04E
:10014000000088E0E0E6F0E0DE01519601900D92BB
:100150008A95E1F77E01F1E1EF0EF11C8E01075F58
:100160001F4F6E0129E1C20ED11CD801F7014701D2
:100170005801819180958D93EC15FD05D1F788E0AC
:10018000E8E6F0E0DE01119601900D928A95E1F724
:1001900080E40E945B00F70181917F010E9467006B
:1001A000EC14FD04C1F788E40E945B00F801819122
:1001B0008F010E94670080169106C1F780E50E94BA
:1001C0005B008E010F5F1F4FF80181918F010E942C
:1001D0006700A016B106C1F780E80E945B0080E0CE
:1001E0000E946700FFE728E381E0F1502040804053
:1001F000E1F700C0000080E80E945B0081E00E94FF
:1002000067009FE7E8E3F1E09150E040F040E1F75C
:1002100000C0000080E80E945B0082E00E9467004E
:100220002FE788E391E0215080409040E1F700C043
:080230000000D2CFF894FFCFCB
:100238001F1B15150E151B1F1F1F1F1F1F1F1F1FFD
:00000001FF
