:100000000C942A000C9447000C9447000C94470071
:100010000C9447000C9447000C9447000C94470044
:100020000C9447000C9447000C9472000C94470009
:100030000C9447000C9460000C9447000C9447000B
:100040000C9447000C9447000C9447000C94470014
:100050000C94470011241FBECFE5D8E0DEBFCDBF12
:1000600010E0A0E6B0E0E0E1F2E002C005900D9201
:10007000A43BB107D9F720E0A4EBB0E001C01D928A
:10008000A73BB207E1F70E9483000C9406010C9491
:100090000000FC019191992321F05D9BFECF9CB95A
:1000A000F9CF0895CF93C82F80E690E00E944900D1
:1000B0005D9BFECFCCB98BE990E0CF910C944900C9
:1000C0001F920F920FB60F9211248F938CB18093D1
:1000D000B60081E08093B5008F910F900FBE0F9016
:1000E0001F9018951F920F920FB60F9211248F93A5
:1000F0008091B4008F5F8093B4008F910F900FBEFA
:100100000F901F9018958FEF8ABB8BBB2FE78AE16A
:1001100096E0215080409040E1F700C000001BBAFB
:1001200010BC89E189B988E98AB986E880BD12BE28
:1001300089EF8CBF8BE083BF89B7826089BF7894D9
:1001400086E790E00E944900C1E0D0E210E404E0BC
:1001500088E0F82E90E1E92E22E0D22E8091B400C2
:100160008D3728F01092B4008BB38C278BBB809115
:10017000B500882399F31092B5008091B6008533BD
:1001800051F198F48233E9F038F48133D1F58BB32F
:100190008D258BBB81E332C08333C1F0843389F575
:1001A0008BB38E258BBB84E329C08733F1F0C0F07D
:1001B000833601F1833729F58BB38E6F8BBB83E7D1
:1001C0001DC08BB380278BBB82E318C08BB38F25F8
:1001D0008BBB83E313C08BB38D278BBB85E30EC032
:1001E0008BB381278BBB86E309C08BB380588BBB55
:1001F00087E304C08BB381708BBB83E60E945200FF
:10020000ADCF8EE990E00E944900A8CFF894FFCFCF
:100210004E616369736E6965746F2070727A796379
:1002200069736B3A20005A4C3341565220676F7401
:100230006F77792E20576369736E696A20312D3785
:100240002C207320616C626F20632E0D0A004E69B2
:10025000657A6E616E6520706F6C6563656E696549
:040260002E0D0A0055
:00000001FF
